:100000000C942A000C943F000C943F000C943F0089
:100010000C943F000C943F000C943F000C943F0064
:100020000C943F000C943F000C943F000C943F0054
:100030000C943F000C943F000C943F000C943F0044
:100040000C943F000C943F000C943F000C943F0034
:100050000C943F0011241FBECFE5D8E0DEBFCDBF1A
:1000600010E0A0E6B0E0E0E1F6E202C005900D92FB
:10007000AE36B107D9F70E944B100C9406130C94BE
:100080000000EF92FF920F931F937B018C0120E001
:1000900030E040E05FE40E94ED0388238CF0C8016B
:1000A000B70120E030E040E05FE40E94B9010E9427
:1000B0004D049B01AC01205030404040504806C0E8
:1000C000C801B7010E944D049B01AC01B901CA01EE
:1000D0001F910F91FF90EF900895A0E0B0E0E3E74B
:1000E000F0E00C94CF12DC012B01FA019C919230CC
:1000F00008F439C1EB018881823008F433C19430AF
:1001000069F4843009F02FC111969C91119789816F
:10011000981709F428C1A0E6B0E025C1843009F49D
:1001200021C18230A9F4923009F01DC19A01AD01BC
:1001300088E0EA010990AE01E90109929E0181502F
:10014000C1F7E201898111969C918923818308C1BD
:10015000923009F407C112962D903C901397EB0151
:100160008A819B811496AD90BD90CD90DC901797BD
:10017000EC80FD800E811F819101281B390BB90194
:1001800037FF04C066277727621B730B6032710547
:100190000CF061C0121613066CF537014801062EEB
:1001A00004C096948794779467940A94D2F721E0D8
:1001B00030E040E050E004C0220F331F441F551FC1
:1001C0006A95D2F721503040404050402E213F21C7
:1001D00040235123211531054105510521F021E02E
:1001E00030E040E050E079018A01E628F72808294C
:1001F00019293CC0232BD1F1260E371E35014601AB
:10020000062E04C096948794779467940A94D2F744
:1002100021E030E040E050E004C0220F331F441FD3
:10022000551F6A95D2F721503040404050402A2156
:100230003B214C215D21211531054105510521F05E
:1002400021E030E040E050E059016A01A628B728DB
:10025000C828D9280BC0821593052CF01C01AA24AC
:10026000BB24650103C0EE24FF24870111969C91F5
:10027000D20111968C91981709F445C0992339F051
:10028000A80197012A193B094C095D0906C0A6017E
:1002900095012E193F09400B510B57FD08C01182E3
:1002A0003382228224833583468357831DC081E0B5
:1002B00081833382228288279927DC01821B930B5A
:1002C000A40BB50B84839583A683B7830DC0220F3F
:1002D000331F441F551F24833583468357838281F0
:1002E000938101979383828324813581468157814D
:1002F000DA01C9010197A109B1098F5F9F4FAF4F83
:10030000BF4328F30BC0918333822282EA0CFB1C8B
:100310000C1D1D1DE482F5820683178383E0808314
:10032000248135814681578157FF1AC0C901AA2708
:1003300097FDA095BA2F81709070A070B0705695FF
:10034000479537952795822B932BA42BB52B848328
:100350009583A683B7838281938101969383828359
:10036000DF0101C0D201CD01CDB7DEB7E2E10C94CF
:10037000EB12A0E2B0E0EFEBF1E00C94DB1269834A
:100380007A838B839C832D833E834F835887E9E058
:10039000EE2EF12CEC0EFD1ECE010196B7010E944F
:1003A00076058E010F5E1F4FCE010596B8010E94A3
:1003B00076058A8991E089278A8BC701B801AE0149
:1003C000475E5F4F0E946D000E94A104A096E6E088
:1003D0000C94F712A0E2B0E0E0EFF1E00C94DB1235
:1003E00069837A838B839C832D833E834F835887D5
:1003F000F9E0EF2EF12CEC0EFD1ECE010196B701B7
:100400000E9476058E010F5E1F4FCE010596B80142
:100410000E947605C701B801AE01475E5F4F0E949A
:100420006D000E94A104A096E6E00C94F712A0E2F1
:10043000B0E0EDE1F2E00C94CF1269837A838B8314
:100440009C832D833E834F835887CE010196BE0146
:10045000675F7F4F0E947605CE010596BE016F5EF5
:100460007F4F0E9476059985923088F08989823085
:10047000C8F0943019F4823051F404C0843029F467
:10048000923081F480E690E0C6C0923049F420E0DA
:100490009A858A89981321E02A87CE010996BBC0E4
:1004A000823049F420E09A858A89981321E02A8BCA
:1004B000CE014196B0C02D843E844F8458886D880B
:1004C0007E888F88988CEE24FF248701AA24BB2481
:1004D000650140E050E060E070E0E0E0F0E0C10184
:1004E00081709070892BE9F0E60CF71C081D191D2E
:1004F0009A01AB012A0D3B1D4C1D5D1D80E090E073
:10050000A0E0B0E0E614F7040805190520F481E046
:1005100090E0A0E0B0E0BA01A901480F591F6A1F9E
:100520007B1FAA0CBB1CCC1CDD1C97FE08C081E005
:1005300090E0A0E0B0E0A82AB92ACA2ADB2A3196C6
:10054000E032F10549F0660C771C881C991C569422
:10055000479437942794C3CFFA85EA892B893C893D
:100560008B859C85280F391F2E5F3F4F17C0CA010E
:1005700081709070892B61F016950795F794E79438
:1005800080E090E0A0E0B0E8E82AF92A0A2B1B2BD3
:1005900076956795579547952F5F3F4F77FDE7CF46
:1005A0000CC0440F551F661F771F17FD4160EE0CEE
:1005B000FF1C001F111F21503040403090E05907B0
:1005C00090E0690790E4790760F32B8F3C8FDB01A3
:1005D000CA018F779070A070B07080349105A1052A
:1005E000B10561F447FD0AC0E114F10401051105EC
:1005F00029F0405C5F4F6F4F7F4F40781A8EFE1797
:1006000011F081E08A8F4D8F5E8F6F8F78A383E02A
:10061000898FCE0149960E94A104A096E2E10C9434
:10062000EB12A8E1B0E0E7E1F3E00C94D7126983A4
:100630007A838B839C832D833E834F835887B9E0D5
:10064000EB2EF12CEC0EFD1ECE010196B7010E949F
:1006500076058E010F5E1F4FCE010596B8010E94F0
:1006600076052985223008F47EC03989323010F4AD
:10067000B8017CC08A859A8989278A87243011F03D
:10068000223031F4231709F06EC060E670E06EC0CE
:10069000343039F41D861E861F86188A1C861B86F8
:1006A00004C0323021F484E08987B7015FC02B8514
:1006B0003C858B899C89281B390B3C872B87ED84D3
:1006C000FE840F851889AD88BE88CF88D88CEA143F
:1006D000FB040C051D0540F4EE0CFF1C001F111F50
:1006E000215030403C872B8720E030E040E050E054
:1006F00080E090E0A0E0B0E460E070E0EA14FB0489
:100700000C051D0540F0282B392B4A2B5B2BEA18D2
:10071000FB080C091D09B695A79597958795EE0CD2
:10072000FF1C001F111F6F5F7F4F6F31710531F785
:10073000DA01C9018F779070A070B0708034910594
:10074000A105B10561F427FD0AC0E114F10401051A
:10075000110529F0205C3F4F4F4F5F4F20782D87C8
:100760003E874F87588BBE01675F7F4FCB010E944A
:10077000A1046896EAE00C94F312A8E1B0E0E3EC7F
:10078000F3E00C94DB1269837A838B839C832D8343
:100790003E834F83588789E0E82EF12CEC0EFD1E36
:1007A000CE010196B7010E9476058E010F5E1F4FA4
:1007B000CE010596B8010E9476058985823040F009
:1007C0008989823028F0C701B8010E94EE0501C076
:1007D0008FEF6896E6E00C94F712A8E1B0E0E3EF43
:1007E000F3E00C94DB1269837A838B839C832D83E3
:1007F0003E834F83588789E0E82EF12CEC0EFD1ED6
:10080000CE010196B7010E9476058E010F5E1F4F43
:10081000CE010596B8010E9476058985823040F0A8
:100820008989823028F0C701B8010E94EE0501C015
:100830008FEF6896E6E00C94F712A8E1B0E0E3E2EF
:10084000F4E00C94DB1269837A838B839C832D8381
:100850003E834F83588789E0E82EF12CEC0EFD1E75
:10086000CE010196B7010E9476058E010F5E1F4FE3
:10087000CE010596B8010E9476058985823040F048
:100880008989823028F0C701B8010E94EE0501C0B5
:1008900081E06896E6E00C94F712ACE0B0E0E3E5A6
:1008A000F4E00C94DF1269837A838B839C83CE01FE
:1008B0000196BE016B5F7F4F0E9476058D8182306D
:1008C00061F1823050F1843021F48E81882351F11E
:1008D0002EC02F81388537FD20C06E812F31310524
:1008E0001CF06623F9F023C08EE190E0821B930B8D
:1008F00029853A854B855C8504C056954795379583
:1009000027958A95D2F76623B1F05095409530959A
:1009100021953F4F4F4F5F4F0EC020E030E040E049
:1009200050E009C02FEF3FEF4FEF5FE704C020E03A
:1009300030E040E050E8B901CA012C96E2E00C94A6
:10094000FB12DF92EF92FF920F931F93FC01E48062
:10095000F58006811781D1808081823048F480E063
:1009600090E0A0E1B0E0E82AF92A0A2B1B2BA5C0F1
:10097000843009F49FC0823021F4EE24FF248701E3
:1009800005C0E114F1040105110519F4E0E0F0E0FF
:1009900096C0628173819FEF623879070CF05BC06B
:1009A00022E83FEF261B370B2A3131052CF020E0DF
:1009B00030E040E050E02AC0B801A701022E04C098
:1009C00076956795579547950A94D2F781E090E020
:1009D000A0E0B0E004C0880F991FAA1FBB1F2A9592
:1009E000D2F70197A109B1098E219F21A023B1233C
:1009F0000097A105B10521F081E090E0A0E0B0E012
:100A00009A01AB01282B392B4A2B5B2BDA01C90148
:100A10008F779070A070B07080349105A105B105FA
:100A200039F427FF09C0205C3F4F4F4F5F4F04C090
:100A3000215C3F4F4F4F5F4FE0E0F0E02030A0E0FF
:100A40003A07A0E04A07A0E45A0710F0E1E0F0E01E
:100A500079018A0127C06038710564F5FB01E1580E
:100A6000FF4FD801C7018F779070A070B0708034AD
:100A70009105A105B10539F4E7FE0DC080E490E0D1
:100A8000A0E0B0E004C08FE390E0A0E0B0E0E80EAA
:100A9000F91E0A1F1B1F17FF05C016950795F7942F
:100AA000E794319687E016950795F794E7948A9531
:100AB000D1F705C0EE24FF248701EFEFF0E06E2FA1
:100AC000679566276795902F9F77D794DD24D794F5
:100AD0008E2F8695492F462B582F5D29B701CA01C5
:100AE0001F910F91FF90EF90DF900895FC01DB01C3
:100AF000408151812281622F6F7770E0221F22276F
:100B0000221F9381892F880F822B282F30E0991F75
:100B10009927991F11969C93119721153105A9F5D5
:100B2000411551056105710511F482E037C082E875
:100B30009FEF13969C938E9312979A01AB0167E0F7
:100B4000220F331F441F551F6A95D1F783E08C9302
:100B50000DC0220F331F441F551F12968D919C917B
:100B60001397019713969C938E931297203080E0F1
:100B7000380780E0480780E4580758F314962D930F
:100B80003D934D935C93179708952F3F310579F46A
:100B9000411551056105710519F484E08C930895A0
:100BA00064FF03C081E08C9312C01C9210C02F57C9
:100BB000304013963C932E93129783E08C9387E0FA
:100BC000440F551F661F771F8A95D1F770641496DE
:100BD0004D935D936D937C93179708951F93DC015C
:100BE000FB019C91923008F447C08081823008F468
:100BF00043C0943051F411961C91843099F5818151
:100C0000682F70E0611B71093FC0843021F0923081
:100C100031F48230B9F18181882389F12DC0119698
:100C20001C9111978230F1F081811817D9F4129636
:100C30002D913C911397828193818217930794F0B1
:100C400028173907BCF014968D919D910D90BC9199
:100C5000A02D2481358146815781281739074A07FD
:100C60005B0718F4112341F00AC082179307A40709
:100C7000B50740F4112319F061E070E005C06FEF93
:100C80007FEF02C060E070E0CB011F910895DF9319
:100C9000CF9300D000D000D0CDB7DEB78A836B836E
:100CA0004C8319828A81843008F0E3C08B818830BC
:100CB00008F0DCC08C81882321F08C81813009F020
:100CC000D2C08A81282F30E03E832D838D819E8182
:100CD0008130910509F443C02D813E8122303105D8
:100CE0002CF48D819E81009771F0C5C02D813E81CD
:100CF0002230310509F45FC08D819E8183309105DA
:100D000009F485C0B8C08C818130A1F4ABE3B0E0B8
:100D1000EBE3F0E08081482F8B81282F30E081E0E9
:100D200090E0022E02C0880F991F0A94E2F7842BEC
:100D30008C93A1C0ABE3B0E0EBE3F0E08081482FFF
:100D40008B81282F30E081E090E0022E02C0880FD6
:100D5000991F0A94E2F7809584238C938CC08C8130
:100D60008130A1F4A8E3B0E0E8E3F0E08081482F0F
:100D70008B81282F30E081E090E0022E02C0880FA6
:100D8000991F0A94E2F7842B8C9375C0A8E3B0E016
:100D9000E8E3F0E08081482F8B81282F30E081E06C
:100DA00090E0022E02C0880F991F0A94E2F7809506
:100DB00084238C9360C08C818130A1F4A5E3B0E0E2
:100DC000E5E3F0E08081482F8B81282F30E081E03F
:100DD00090E0022E02C0880F991F0A94E2F7842B3C
:100DE0008C9349C0A5E3B0E0E5E3F0E08081482FB3
:100DF0008B81282F30E081E090E0022E02C0880F26
:100E0000991F0A94E2F7809584238C9334C08C81D7
:100E10008130A1F4A2E3B0E0E2E3F0E08081482F6A
:100E20008B81282F30E081E090E0022E02C0880FF5
:100E3000991F0A94E2F7842B8C931DC0A2E3B0E0C3
:100E4000E2E3F0E08081482F8B81282F30E081E0C1
:100E500090E0022E02C0880F991F0A94E2F7809555
:100E600084238C9308C089E0898305C086E0898348
:100E700002C083E08983898126960FB6F894DEBF8D
:100E80000FBECDBFCF91DF910895DF93CF9300D0F8
:100E900000D000D0CDB7DEB78A836B834C83198234
:100EA0008A81843008F0E3C08B81883008F0DCC090
:100EB0008C81882321F08C81813009F0D2C08A8115
:100EC000282F30E03E832D838D819E8181309105D6
:100ED00009F443C02D813E81223031052CF48D81EF
:100EE0009E81009771F0C5C02D813E812230310571
:100EF00009F45FC08D819E818330910509F485C01E
:100F0000B8C08C818130A1F4AAE3B0E0EAE3F0E05C
:100F10008081482F8B81282F30E081E090E0022EE5
:100F200002C0880F991F0A94E2F7842B8C93A1C00A
:100F3000AAE3B0E0EAE3F0E08081482F8B81282F1C
:100F400030E081E090E0022E02C0880F991F0A94E1
:100F5000E2F7809584238C938CC08C818130A1F43E
:100F6000A7E3B0E0E7E3F0E08081482F8B81282FF2
:100F700030E081E090E0022E02C0880F991F0A94B1
:100F8000E2F7842B8C9375C0A7E3B0E0E7E3F0E0D1
:100F90008081482F8B81282F30E081E090E0022E65
:100FA00002C0880F991F0A94E2F7809584238C93DE
:100FB00060C08C818130A1F4A4E3B0E0E4E3F0E010
:100FC0008081482F8B81282F30E081E090E0022E35
:100FD00002C0880F991F0A94E2F7842B8C9349C0B2
:100FE000A4E3B0E0E4E3F0E08081482F8B81282F78
:100FF00030E081E090E0022E02C0880F991F0A9431
:10100000E2F7809584238C9334C08C818130A1F4E5
:10101000A1E3B0E0E1E3F0E08081482F8B81282F4D
:1010200030E081E090E0022E02C0880F991F0A9400
:10103000E2F7842B8C931DC0A1E3B0E0E1E3F0E084
:101040008081482F8B81282F30E081E090E0022EB4
:1010500002C0880F991F0A94E2F7809584238C932D
:1010600008C08CE0898305C086E0898302C083E0E4
:101070008983898126960FB6F894DEBF0FBECDBF57
:10108000CF91DF910895DF93CF9300D000D00F92DE
:10109000CDB7DEB78A836B8319828A818430E0F50D
:1010A0008B81882319F08B818F3F99F58A81282FB6
:1010B00030E03D832C838C819D8181309105D1F07E
:1010C0002C813D81223031052CF48C819D8100974B
:1010D00061F024C02C813D812230310581F08C816A
:1010E0009D818330910581F019C0EBE3F0E08B81A5
:1010F000808314C0E8E3F0E08B8180830FC0E5E3D8
:10110000F0E08B8180830AC0E2E3F0E08B81808392
:1011100005C08FE0898302C083E0898389810F90B5
:101120000F900F900F900F90CF91DF910895DF9364
:10113000CF9300D000D00F92CDB7DEB78A836B83F8
:1011400019828A818430E0F58B81882319F08B81A4
:101150008F3F99F58A81282F30E03D832C838C8145
:101160009D8181309105D1F02C813D812230310566
:101170002CF48C819D81009761F024C02C813D81ED
:101180002230310581F08C819D818330910581F081
:1011900019C0EAE3F0E08B81808314C0E7E3F0E05C
:1011A0008B8180830FC0E4E3F0E08B8180830AC0F1
:1011B000E1E3F0E08B81808305C082E1898302C096
:1011C00083E0898389810F900F900F900F900F908B
:1011D000CF91DF910895DF93CF93CDB7DEB72797F7
:1011E0000FB6F894DEBF0FBECDBF8A836B835D83DD
:1011F0004C8319828A81843008F078C08B818830D2
:1012000008F071C08A81282F30E03F832E834E8101
:101210005F814130510559F18E819F818230910566
:1012200034F42E813F812115310569F061C04E8172
:101230005F814230510579F18E819F818330910524
:1012400009F43DC055C0E9E3F0E08081282F30E08B
:101250008B81882F90E0A90102C0559547958A950A
:10126000E2F7CA018170EC81FD81808341C0E6E331
:10127000F0E08081282F30E08B81882F90E0A90159
:1012800002C0559547958A95E2F7CA018170EC81B5
:10129000FD8180832DC0E3E3F0E08081282F30E0E2
:1012A0008B81882F90E0A90102C0559547958A95BA
:1012B000E2F7CA018170EC81FD81808319C0E0E30F
:1012C000F0E08081282F30E08B81882F90E0A90109
:1012D00002C0559547958A95E2F7CA018170EC8165
:1012E000FD81808305C086E0898302C083E0898315
:1012F000898127960FB6F894DEBF0FBECDBFCF9180
:10130000DF910895DF93CF9300D000D000D0CDB708
:10131000DEB78A837C836B8319828A818430D8F517
:101320008A81282F30E03E832D838D819E818130FC
:101330009105E1F02D813E81223031052CF48D8123
:101340009E81009761F029C02D813E8122303105B8
:10135000A1F08D819E8183309105B1F01EC0E9E33B
:10136000F0E08081EB81FC81808317C0E6E3F0E050
:101370008081EB81FC81808310C0E3E3F0E0808119
:10138000EB81FC81808309C0E0E3F0E08081EB81A8
:10139000FC81808302C083E08983898126960FB611
:1013A000F894DEBF0FBECDBFCF91DF9108950F93AC
:1013B0001F93DF93CF93CDB7DEB7CA55D0400FB69A
:1013C000F894DEBF0FBECDBF82E060E041E00E9436
:1013D000450782E061E041E00E94450782E062E06B
:1013E00041E00E94450783E064E041E00E94450738
:1013F00083E065E041E00E94450783E066E041E06C
:101400000E94450783E067E041E00E944507FE0136
:10141000E95AFF4F80E090E0A0E2B2E4808391833C
:10142000A283B3838E010D5A1F4FFE01E95AFF4F6D
:10143000608171818281938120E030E04AEF54E441
:101440000E941702DC01CB01F80180839183A28303
:10145000B383FE01ED5AFF4F6081718182819381D8
:1014600020E030E040E85FE30E941D04882344F45C
:10147000FE01EF5AFF4F81E090E09183808364C0CA
:10148000FE01ED5AFF4F608171818281938120E0DE
:101490003FEF4FE757E40E94BD0318160CF043C01E
:1014A000FE01E95AFF4F608171818281938120E0C2
:1014B00030E040E251E40E941702DC01CB018E01D2
:1014C0000F5A1F4FBC01CD010E944100DC01CB012E
:1014D000F801918380831FC0FE01E15BFF4F88EC20
:1014E00090E091838083FE01E15BFF4F80819181D9
:1014F0000197F1F7FE01E15BFF4F91838083DE01ED
:10150000AF5ABF4FFE01EF5AFF4F80819181019783
:1015100011969C938E93FE01EF5AFF4F808191812B
:101520000097D1F627C08E010F5A1F4FFE01ED5ACA
:10153000FF4F60817181828193810E944100DC01B3
:10154000CB01F80191838083DE01A35BBF4FFE01D5
:10155000EF5AFF4F808191818D939C93FE01E35B55
:10156000FF4F808191810197F1F7FE01E35BFF4F0F
:101570009183808382E00E945E0D88E20E945E0D6E
:10158000FE01E75BFF4F80E090E0A8E4B2E48083D7
:101590009183A283B3838E010B5B1F4FFE01E75B38
:1015A000FF4F60817181828193812BEA3AEA4AE29E
:1015B00050E40E941702DC01CB01F8018083918383
:1015C000A283B383FE01EB5BFF4F60817181828157
:1015D000938120E030E040E85FE30E941D0488230F
:1015E00034F4FE01EC5BFF4F81E08083A7C0FE0175
:1015F000EB5BFF4F608171818281938120E030E05D
:101600004FE753E40E94BD0318160CF087C0FE019B
:10161000E75BFF4F608171818281938120E030E040
:101620004AE754E40E941103DC01CB01FE01E05CB7
:10163000FF4F80839183A283B383FE01E05CFF4F61
:10164000608171818281938120E030E04AEF54E42F
:101650000E941702DC01CB018CAF9DAFAEAFBFAFD4
:101660006CAD7DAD8EAD9FAD20E030E040E85FE336
:101670000E941D0488232CF481E090E09BAF8AAF88
:1016800042C06CAD7DAD8EAD9FAD20E03FEF4FE72A
:1016900057E40E94BD03181664F5FE01E05CFF4F9D
:1016A000608171818281938120E030E040E251E4E9
:1016B0000E941702DC01CB01BC01CD010E94410058
:1016C000DC01CB019BAF8AAF0FC088EC90E099AFF3
:1016D00088AF88AD99AD0197F1F799AF88AF8AAD22
:1016E0009BAD01979BAF8AAF8AAD9BAD009769F721
:1016F0002EC06CAD7DAD8EAD9FAD0E944100DC0172
:10170000CB019BAF8AAF8AAD9BAD9FAB8EAB8EA951
:101710009FA90197F1F79FAB8EAB19C08E010C5BAF
:101720001F4FFE01EB5BFF4F6081718182819381CE
:101730000E944100DC01CB01F8018083FE01EC5BDB
:10174000FF4F80818DAB8DA98A95F1F78DAB8EE02F
:101750000E945E0D80E090E0A8E4B2E489AB9AAB11
:10176000ABABBCAB69A97AA98BA99CA92BEA3AEAD5
:101770004AE250E40E941702DC01CB018DA79EA72C
:10178000AFA7B8AB6DA57EA58FA598A920E030E0E6
:1017900040E85FE30E941D0488231CF481E08CA7CD
:1017A00091C06DA57EA58FA598A920E030E04FE7F8
:1017B00053E40E94BD0318160CF07BC069A97AA9F6
:1017C0008BA99CA920E030E04AE754E40E94110371
:1017D000DC01CB0188A799A7AAA7BBA768A579A513
:1017E0008AA59BA520E030E04AEF54E40E9417024E
:1017F000DC01CB018CA39DA3AEA3BFA36CA17DA1F3
:101800008EA19FA120E030E040E85FE30E941D042C
:1018100088232CF481E090E09BA38AA33FC06CA1B5
:101820007DA18EA19FA120E03FEF4FE757E40E94EA
:10183000BD0318164CF568A579A58AA59BA520E0DF
:1018400030E040E251E40E941702DC01CB01BC0110
:10185000CD010E944100DC01CB019BA38AA30FC0F4
:1018600088EC90E099A388A388A199A10197F1F74A
:1018700099A388A38AA19BA101979BA38AA38AA16C
:101880009BA1009769F724C06CA17DA18EA19FA1A7
:101890000E944100DC01CB019BA38AA38AA19BA1EA
:1018A0009F8F8E8F8E8D9F8D0197F1F79F8F8E8FDB
:1018B0000FC06DA57EA58FA598A90E944100DC01EF
:1018C000CB018CA78CA58D8F8D8D8A95F1F78D8F8F
:1018D00081E00E945E0D80E090E0A0E0B0E4898F9E
:1018E0009A8FAB8FBC8F698D7A8D8B8D9C8D20E00C
:1018F00030E04AEF54E40E941702DC01CB018D8BEB
:101900009E8BAF8BB88F6D897E898F89988D20E0F3
:1019100030E040E85FE30E941D0488232CF481E05E
:1019200090E09C8B8B8B3FC06D897E898F89988DD1
:1019300020E03FEF4FE757E40E94BD0318164CF537
:10194000698D7A8D8B8D9C8D20E030E040E251E4F2
:101950000E941702DC01CB01BC01CD010E944100B5
:10196000DC01CB019C8B8B8B0FC088EC90E09A8BB9
:10197000898B89899A890197F1F79A8B898B8B8951
:101980009C8901979C8B8B8B8B899C89009769F72D
:1019900014C06D897E898F89988D0E944100DC0179
:1019A000CB019C8B8B8B8B899C89988B8F878F85A8
:1019B00098890197F1F7988B8F8780E80E945E0DD8
:1019C00080E090E0A0E8BFE38B879C87AD87BE876F
:1019D0006B857C858D859E8520E030E04AEF54E460
:1019E0000E941702DC01CB018F839887A987BA87F1
:1019F0006F81788589859A8520E030E040E85FE353
:101A00000E941D0488232CF481E090E09E838D8346
:101A10003FC06F81788589859A8520E03FEF4FE749
:101A200057E40E94BD0318164CF56B857C858D85A7
:101A30009E8520E030E040E251E40E941702DC0184
:101A4000CB01BC01CD010E944100DC01CB019E8392
:101A50008D830FC088EC90E09C838B838B819C816D
:101A60000197F1F79C838B838D819E8101979E83E3
:101A70008D838D819E81009769F714C06F81788571
:101A800089859A850E944100DC01CB019E838D836C
:101A90008D819E819A83898389819A810197F1F74B
:101AA0009A838983C65ADF4F0FB6F894DEBF0FBE04
:101AB000CDBFCF91DF911F910F910895DF93CF9309
:101AC00000D0CDB7DEB78A838A81807F898382E0A8
:101AD00060E040E00E94470689810E94AE0D8A8145
:101AE000882F90E082959295907F9827807F982705
:101AF000898382E060E040E00E94470689810E947D
:101B0000AE0D0F900F90CF91DF910895DF93CF939B
:101B100000D0CDB7DEB78A838A81807F898382E057
:101B200060E041E00E94470689810E94AE0D8A81F3
:101B3000882F90E082959295907F9827807F9827B4
:101B4000898382E060E041E00E94470689810E942B
:101B5000AE0D0F900F90CF91DF910895DF93CF934B
:101B6000CDB7DEB76D970FB6F894DEBF0FBECDBF11
:101B70008D8F82E061E040E00E9447068D8D829566
:101B80008F70982F917083E064E0492F0E94470680
:101B90008D8D829586958770982F917083E065E092
:101BA000492F0E9447068D8D829586958695837074
:101BB000982F917083E066E0492F0E9447068D8D33
:101BC000982F991F9927991F83E067E0492F0E945A
:101BD000470682E062E041E00E94470680E090E034
:101BE000A0E0B0E4898F9A8FAB8FBC8F698D7A8D1E
:101BF0008B8D9C8D20E030E04AEF54E40E94170268
:101C0000DC01CB018D8B9E8BAF8BB88F6D897E896C
:101C10008F89988D20E030E040E85FE30E941D044A
:101C200088232CF481E090E09C8B8B8B3FC06D89E6
:101C30007E898F89988D20E03FEF4FE757E40E941F
:101C4000BD0318164CF5698D7A8D8B8D9C8D20E027
:101C500030E040E251E40E941702DC01CB01BC01FC
:101C6000CD010E944100DC01CB019C8B8B8B0FC00E
:101C700088EC90E09A8B898B89899A890197F1F792
:101C80009A8B898B8B899C8901979C8B8B8B8B89F9
:101C90009C89009769F714C06D897E898F89988D1A
:101CA0000E944100DC01CB019C8B8B8B8B899C8932
:101CB000988B8F878F8598890197F1F7988B8F87FD
:101CC00082E062E040E00E94470680E090E0A0E011
:101CD000B0E48B879C87AD87BE876B857C858D85BF
:101CE0009E8520E030E04AEF54E40E941702DC01B8
:101CF000CB018F839887A987BA876F81788589857B
:101D00009A8520E030E040E85FE30E941D048823CC
:101D10002CF481E090E09E838D833FC06F817885B5
:101D200089859A8520E03FEF4FE757E40E94BD0385
:101D300018164CF56B857C858D859E8520E030E0FE
:101D400040E251E40E941702DC01CB01BC01CD014D
:101D50000E944100DC01CB019E838D830FC088EC83
:101D600090E09C838B838B819C810197F1F79C830E
:101D70008B838D819E8101979E838D838D819E8132
:101D8000009769F714C06F81788589859A850E94CC
:101D90004100DC01CB019E838D838D819E819A83DE
:101DA000898389819A810197F1F79A8389836D9656
:101DB0000FB6F894DEBF0FBECDBFCF91DF9108956F
:101DC000DF93CF930F92CDB7DEB789838981806887
:101DD0000E945E0D0F90CF91DF910895DF93CF9316
:101DE00000D000D00F92CDB7DEB79B838A836C837F
:101DF0004D838D81882F90E00024969587950794D8
:101E0000969587950794982F802D982F8C81890F10
:101E1000898389810E94E00E1DC08981803131F45F
:101E200080E4898389810E94E00E07C08981803522
:101E300021F4198289810E94E00EEA81FB81808170
:101E40000E94860D8A819B8101969B838A8389816A
:101E50008F5F8983EA81FB8180818823F1F60F906F
:101E60000F900F900F900F90CF91DF910895DF9317
:101E7000CF930F92CDB7DEB78983898180640E94AA
:101E80005E0D0F90CF91DF910895DF93CF9300D037
:101E900000D0CDB7DEB79C838B83198215C08B81B0
:101EA0009C812AE030E0B9010E94BB128A838981BB
:101EB0008F5F89838B819C812AE030E0B9010E9489
:101EC000BB12CB019C838B838B819C81009739F75C
:101ED0008981882F90E00F900F900F900F90CF91F5
:101EE000DF910895DF93CF9300D000D0CDB7DEB758
:101EF0009C838B831A82198208C080E20E94860D1F
:101F000089819A8101969A83898329813A818B817B
:101F10009C818217930788F70F900F900F900F9076
:101F2000CF91DF910895DF93CF9300D000D00F922F
:101F3000CDB7DEB79B838A837D836C83EA81FB8187
:101F400080818983EC81FD818081EA81FB818083AE
:101F5000EC81FD81898180830F900F900F900F900D
:101F60000F90CF91DF910895DF93CF9300D000D0F1
:101F70000F92CDB7DEB79C838B836D831A828D81E0
:101F80008150898319C08A81282F30E08B819C8100
:101F9000AC01420F531F8981282F30E08B819C8137
:101FA000280F391FCA01B9010E94930F8A818F5FE0
:101FB0008A838981815089839A818981981718F34E
:101FC0000F900F900F900F900F90CF91DF91089589
:101FD000DF93CF93CDB7DEB761970FB6F894DEBF2E
:101FE0000FBECDBF9F878E87688B498B19828E85E8
:101FF0009F85009779F58981282F30E0CE010396DF
:10200000FC01E20FF31F80E3808389818F5F898366
:1020100021C08E859F852AE030E0B9010E94BB1265
:102020008A838981282F30E08A81482F405DCE0144
:102030000396FC01E20FF31F408389818F5F898340
:102040008E859F852AE030E0B9010E94BB12CB014A
:102050009F878E878E859F850097D9F68981282F47
:1020600030E0CE010396FC01E20FF31F1082CE0197
:10207000039669810E94B40FCE010396688949894D
:102080000E94EE0E61960FB6F894DEBF0FBECDBF74
:10209000CF91DF910895DF93CF93CDB7DEB7C954C9
:1020A000D0400FB6F894DEBF0FBECDBF0E94D70957
:1020B000CE01CD9627969FAF8EAF2797E8E6F0E04A
:1020C0002996FFAFEEAF2997F6E02A96FFAF2A9741
:1020D0002996EEADFFAD2997008029968EAD9FAD74
:1020E0002997019629969FAF8EAF29972796EEAD37
:1020F000FFAD2797008227968EAD9FAD279701965B
:1021000027969FAF8EAF27972A969FAD2A9791501B
:102110002A969FAF2A972A96EFAD2A97EE23C1F60B
:10212000FE01ED5BFF4F80E28083FE01ED5BFF4F20
:10213000118281E00E945E0D1CAE06C18CAD282F7D
:1021400030E0CE01CD96FC01E20FF31F8081FE014D
:10215000ED5BFF4F80838CAD882F90E08170907095
:10216000009719F481E08BAF01C01BAE80E090E0D6
:10217000A0EFB1E48DAB9EABAFABB8AF6DA97EA9BC
:102180008FA998AD20E030E04AEF54E40E94170296
:10219000DC01CB0189AB9AABABABBCAB69A97AA92B
:1021A0008BA99CA920E030E040E85FE30E941D0479
:1021B00088232CF481E090E098AB8FA73FC069A9F9
:1021C0007AA98BA99CA920E03FEF4FE757E40E9432
:1021D000BD0318164CF56DA97EA98FA998AD20E016
:1021E00030E040E251E40E941702DC01CB01BC0167
:1021F000CD010E944100DC01CB0198AB8FA70FC03D
:1022000088EC90E09EA78DA78DA59EA50197F1F77C
:102210009EA78DA78FA598A9019798AB8FA78FA58B
:1022200098A9009769F714C069A97AA98BA99CA9F4
:102230000E944100DC01CB0198AB8FA78FA598A924
:102240009CA78BA78BA59CA50197F1F79CA78BA7B3
:10225000CE018D5B9F4F6CAD4BAD0E94EE0E80E0CA
:1022600090E0A0EFB1E48FA398A7A9A7BAA76FA1A8
:1022700078A589A59AA520E030E04AEF54E40E94B1
:102280001702DC01CB018BA39CA3ADA3BEA36BA162
:102290007CA18DA19EA120E030E040E85FE30E9498
:1022A0001D0488232CF481E090E09AA389A33FC009
:1022B0006BA17CA18DA19EA120E03FEF4FE757E4E9
:1022C0000E94BD0318164CF56FA178A589A59AA5A3
:1022D00020E030E040E251E40E941702DC01CB0133
:1022E000BC01CD010E944100DC01CB019AA389A36E
:1022F0000FC088EC90E098A38F8F8F8D98A10197E5
:10230000F1F798A38F8F89A19AA101979AA389A326
:1023100089A19AA1009769F714C06BA17CA18DA136
:102320009EA10E944100DC01CB019AA389A389A14F
:102330009AA19E8F8D8F8D8D9E8D0197F1F79E8F27
:102340008D8F8CAD8F5F8CAF8CAD863008F4F6CE60
:1023500081E00E945E0D1AAE06C18AAD282F30E0E2
:10236000CE01CD96FC01E20FF31F8081FE01ED5BF3
:10237000FF4F80838AAD882F90E081709070009726
:1023800011F419AE02C081E089AF80E090E0A0EFC7
:10239000B1E4898F9A8FAB8FBC8F698D7A8D8B8DCD
:1023A0009C8D20E030E04AEF54E40E941702DC01EB
:1023B000CB018D8B9E8BAF8BB88F6D897E898F897A
:1023C000988D20E030E040E85FE30E941D04882300
:1023D0002CF481E090E09C8B8B8B3FC06D897E89D3
:1023E0008F89988D20E03FEF4FE757E40E94BD03AF
:1023F00018164CF5698D7A8D8B8D9C8D20E030E020
:1024000040E251E40E941702DC01CB01BC01CD0186
:102410000E944100DC01CB019C8B8B8B0FC088ECB0
:1024200090E09A8B898B89899A890197F1F79A8B29
:10243000898B8B899C8901979C8B8B8B8B899C8941
:10244000009769F714C06D897E898F89988D0E94E5
:102450004100DC01CB019C8B8B8B8B899C89988BF9
:102460008F878F8598890197F1F7988B8F87CE0199
:102470008D5B9F4F6AAD49AD0E94EE0E80E090E00B
:10248000A0EFB1E48B879C87AD87BE876B857C8589
:102490008D859E8520E030E04AEF54E40E941702CB
:1024A000DC01CB018F839887A987BA876F817885F4
:1024B00089859A8520E030E040E85FE30E941D04B2
:1024C00088232CF481E090E09E838D833FC06F8150
:1024D000788589859A8520E03FEF4FE757E40E9491
:1024E000BD0318164CF56B857C858D859E8520E097
:1024F00030E040E251E40E941702DC01CB01BC0154
:10250000CD010E944100DC01CB019E838D830FC071
:1025100088EC90E09C838B838B819C810197F1F701
:102520009C838B838D819E8101979E838D838D817A
:102530009E81009769F714C06F81788589859A8597
:102540000E944100DC01CB019E838D838D819E81A1
:102550009A83898389819A810197F1F79A83898384
:102560008AAD8F5F8AAF8AAD863008F4F6CE81E0FF
:102570000E945E0DE1CDAA1BBB1B51E107C0AA1F43
:10258000BB1FA617B70710F0A61BB70B881F991F14
:102590005A95A9F780959095BC01CD0108952F9289
:1025A0003F924F925F926F927F928F929F92AF92E3
:1025B000BF92CF92DF92EF92FF920F931F93CF9330
:1025C000DF93CDB7DEB7CA1BDB0B0FB6F894DEBFC7
:1025D0000FBECDBF09942A88398848885F846E84ED
:1025E0007D848C849B84AA84B984C884DF80EE8037
:1025F000FD800C811B81AA81B981CE0FD11D0FB640
:10260000F894DEBF0FBECDBFED010895F894FFCF63
:0E26100000000000000000006B6172696D00A8
:00000001FF
