:100000000C942A000C9434000C9434000C943400AA
:100010000C9434000C9434000C9434000C94340090
:100020000C9434000C9434000C9434000C94340080
:100030000C9434000C9434000C9434000C94340070
:100040000C9434000C9434000C9434000C94340060
:100050000C94340011241FBECFE5D8E0DEBFCDBF25
:100060000E9436000C9416020C940000FF920F932D
:100070001F93CF93DF938FEF8ABB14BAA1E0B0E058
:10008000C8ECD0E0FF24FA9407E010E0989927C06C
:10009000999925C09A9923C040E050E02BB3CD0137
:1000A000042E02C0880F991F0A94E2F7982F8095BA
:1000B00082238BBB8BB38BBB24EC39E0FE013197E1
:1000C000F1F721503040D1F78BB3982B9BBB8BB30A
:1000D0008BBB4F5F5F4F4830510501F7D7CF9899E1
:1000E00029C0999927C083B38695869580FF22C041
:1000F00047E0A1E0B0E068EC70E02BB3CD01042E46
:1001000002C0880F991F0A94E2F7982F80958223E6
:100110008BBB8BB38BBB24EC39E0FB013197F1F740
:1001200021503040D1F78BB3982B9BBB8BB38BBB4B
:100130004150E3CF989917C083B3869580FF13C0D1
:100140009A9911C01BBA84EC99E0FE013197F1F73E
:100150000197D9F7FBBA84EC99E0FE013197F1F7EA
:100160000197D9F793CF98993DC083B3869580FFC7
:1001700039C083B38695869580FF34C067E0A1E0DF
:10018000B0E048EC50E08BB39D01062E02C0220F78
:10019000331F0A94E2F7822B8BBB8BB38BBB84ECAF
:1001A00099E0FA013197F1F70197D9F78BB3922FC4
:1001B000909598239BBB8BB38BBB84EC99E0FA01A1
:1001C0003197F1F70197D9F78BB3282B2BBB8BB362
:1001D0008BBB84EC99E0FA013197F1F70197D9F7DD
:1001E0006150D1CF989B3CC099993AC09A9938C038
:1001F00053E064E070E02BB3CD01062E02C0880FFF
:10020000991F0A94E2F7482F809582238BBB8BB30A
:100210008BBB2BB3CD01052E02C0880F991F0A940A
:10022000E2F7982F809582238BBB8BB38BBB24EC9A
:1002300039E0FE013197F1F721503040D1F78BB30F
:10024000482B4BBB8BB38BBB8BB3982B9BBB8BB31C
:100250008BBB6F5F7F4F552309F418CF5150CBCF25
:10026000989B44C0999942C083B38695869580FF38
:100270003DC040E050E02BB3CD01042E02C0880FFA
:10028000991F0A94E2F7682F809582238BBB8BB36A
:100290008BBB2BB3C801841B950BFD0102C0EE0F75
:1002A000FF1F8A95E2F79E2F8E2F809582238BBBAE
:1002B0008BB38BBB24EC39E0FE013197F1F7215071
:1002C0003040D1F78BB3682B6BBB8BB38BBB8BB33D
:1002D000982B9BBB8BB38BBB4330510509F4D6CE17
:1002E0004F5F5F4F4430510531F6D0CE989B79C0B7
:1002F00083B3869580FF75C09A9973C040E050E043
:100300002BB3CD01042E02C0880F991F0A94E2F787
:10031000682F809582238BBB8BB38BBB2BB3C8011B
:10032000841B950BFD0102C0EE0FFF1F8A95E2F7BB
:100330009E2F8E2F809582238BBB8BB38BBB24EC9F
:1003400039E0FE013197F1F721503040D1F78BB3FE
:10035000682B6BBB8BB38BBB8BB3982B9BBB8BB3CB
:100360008BBB4330510529F04F5F5F4F443051053F
:1003700039F653E064E070E02BB3CD01062E02C0E5
:10038000880F991F0A94E2F7482F809582238BBB30
:100390008BB38BBB2BB3CD01052E02C0880F991FE9
:1003A0000A94E2F7982F809582238BBB8BB38BBB8B
:1003B00024EC39E0FE013197F1F721503040D1F7BC
:1003C0008BB3482B4BBB8BB38BBB8BB3982B9BBB9B
:1003D0008BB38BBB6F5F7F4F552309F457CE5150C2
:1003E000CBCF989B53CE999B51CE9A9B4FCE40E05A
:1003F00050E0442309F4FBBA8BB39D01042E02C0E4
:10040000220F331F0A94E2F7209528232BBB8BB3CE
:100410008BBB84EC99E0FE013197F1F70197D9F796
:100420004F5F5F4F4830510521F730CEF894FFCF32
:00000001FF
