:100000000C942A000C9434000C9434000C943400AA
:100010000C9434000C9434000C9434000C94340090
:100020000C9434000C9434000C9434000C94340080
:100030000C9434000C9434000C9434000C94340070
:100040000C9434000C9434000C9434000C94340060
:100050000C94340011241FBECFE5D8E0DEBFCDBF25
:100060000E94C6030C9407040C940000DF93CF9306
:1000700000D000D000D0CDB7DEB78A836B834C832D
:1000800019828A81843008F0E3C08B81883008F0BF
:10009000DCC08C81882321F08C81813009F0D2C0B2
:1000A0008A81282F30E03E832D838D819E8181308F
:1000B000910509F443C02D813E81223031052CF495
:1000C0008D819E81009771F0C5C02D813E812230C7
:1000D000310509F45FC08D819E818330910509F45B
:1000E00085C0B8C08C818130A1F4ABE3B0E0EBE314
:1000F000F0E08081482F8B81282F30E081E090E074
:10010000022E02C0880F991F0A94E2F7842B8C9369
:10011000A1C0ABE3B0E0EBE3F0E08081482F8B813E
:10012000282F30E081E090E0022E02C0880F991F56
:100130000A94E2F7809584238C938CC08C81813063
:10014000A1F4A8E3B0E0E8E3F0E08081482F8B81E0
:10015000282F30E081E090E0022E02C0880F991F26
:100160000A94E2F7842B8C9375C0A8E3B0E0E8E32F
:10017000F0E08081482F8B81282F30E081E090E0F3
:10018000022E02C0880F991F0A94E2F780958423FB
:100190008C9360C08C818130A1F4A5E3B0E0E5E3ED
:1001A000F0E08081482F8B81282F30E081E090E0C3
:1001B000022E02C0880F991F0A94E2F7842B8C93B9
:1001C00049C0A5E3B0E0E5E3F0E08081482F8B81F2
:1001D000282F30E081E090E0022E02C0880F991FA6
:1001E0000A94E2F7809584238C9334C08C8181300B
:1001F000A1F4A2E3B0E0E2E3F0E08081482F8B813C
:10020000282F30E081E090E0022E02C0880F991F75
:100210000A94E2F7842B8C931DC0A2E3B0E0E2E3E2
:10022000F0E08081482F8B81282F30E081E090E042
:10023000022E02C0880F991F0A94E2F7809584234A
:100240008C9308C089E0898305C086E0898302C059
:1002500083E08983898126960FB6F894DEBF0FBEAE
:10026000CDBFCF91DF910895DF93CF9300D000D021
:1002700000D0CDB7DEB78A836B834C8319828A8125
:10028000843008F0E3C08B81883008F0DCC08C81BA
:10029000882321F08C81813009F0D2C08A81282FF7
:1002A00030E03E832D838D819E818130910509F45C
:1002B00043C02D813E81223031052CF48D819E81F9
:1002C000009771F0C5C02D813E812230310509F4BF
:1002D0005FC08D819E818330910509F485C0B8C0CF
:1002E0008C818130A1F4AAE3B0E0EAE3F0E0808100
:1002F000482F8B81282F30E081E090E0022E02C051
:10030000880F991F0A94E2F7842B8C93A1C0AAE36B
:10031000B0E0EAE3F0E08081482F8B81282F30E0C5
:1003200081E090E0022E02C0880F991F0A94E2F744
:10033000809584238C938CC08C818130A1F4A7E3B9
:10034000B0E0E7E3F0E08081482F8B81282F30E098
:1003500081E090E0022E02C0880F991F0A94E2F714
:10036000842B8C9375C0A7E3B0E0E7E3F0E08081D5
:10037000482F8B81282F30E081E090E0022E02C0D0
:10038000880F991F0A94E2F7809584238C9360C0AC
:100390008C818130A1F4A4E3B0E0E4E3F0E080815B
:1003A000482F8B81282F30E081E090E0022E02C0A0
:1003B000880F991F0A94E2F7842B8C9349C0A4E319
:1003C000B0E0E4E3F0E08081482F8B81282F30E01B
:1003D00081E090E0022E02C0880F991F0A94E2F794
:1003E000809584238C9334C08C818130A1F4A1E367
:1003F000B0E0E1E3F0E08081482F8B81282F30E0EE
:1004000081E090E0022E02C0880F991F0A94E2F763
:10041000842B8C931DC0A1E3B0E0E1E3F0E0808188
:10042000482F8B81282F30E081E090E0022E02C01F
:10043000880F991F0A94E2F7809584238C9308C053
:100440008CE0898305C086E0898302C083E08983CC
:10045000898126960FB6F894DEBF0FBECDBFCF912F
:10046000DF910895DF93CF9300D000D00F92CDB7E6
:10047000DEB78A836B8319828A818430E0F58B81B1
:10048000882319F08B818F3F99F58A81282F30E0DE
:100490003D832C838C819D8181309105D1F02C810D
:1004A0003D81223031052CF48C819D81009761F0D3
:1004B00024C02C813D812230310581F08C819D81C9
:1004C0008330910581F019C0EBE3F0E08B818083EC
:1004D00014C0E8E3F0E08B8180830FC0E5E3F0E037
:1004E0008B8180830AC0E2E3F0E08B81808305C0CA
:1004F0008FE0898302C083E0898389810F900F9008
:100500000F900F900F90CF91DF910895DF93CF93CD
:1005100000D000D00F92CDB7DEB78A836B831982EB
:100520008A818430E0F58B81882319F08B818F3F9D
:1005300099F58A81282F30E03D832C838C819D8121
:1005400081309105D1F02C813D81223031052CF490
:100550008C819D81009761F024C02C813D812230E7
:10056000310581F08C819D818330910581F019C026
:10057000EAE3F0E08B81808314C0E7E3F0E08B8155
:1005800080830FC0E4E3F0E08B8180830AC0E1E365
:10059000F0E08B81808305C082E1898302C083E023
:1005A000898389810F900F900F900F900F90CF91BA
:1005B000DF910895DF93CF93CDB7DEB727970FB6BE
:1005C000F894DEBF0FBECDBF8A836B835D834C83FF
:1005D00019828A81843008F078C08B81883008F0D5
:1005E00071C08A81282F30E03F832E834E815F8146
:1005F0004130510559F18E819F818230910534F44B
:100600002E813F812115310569F061C04E815F81E6
:100610004230510579F18E819F818330910509F433
:100620003DC055C0E9E3F0E08081282F30E08B81A8
:10063000882F90E0A90102C0559547958A95E2F769
:10064000CA018170EC81FD81808341C0E6E3F0E066
:100650008081282F30E08B81882F90E0A90102C093
:10066000559547958A95E2F7CA018170EC81FD8125
:1006700080832DC0E3E3F0E08081282F30E08B8180
:10068000882F90E0A90102C0559547958A95E2F719
:10069000CA018170EC81FD81808319C0E0E3F0E044
:1006A0008081282F30E08B81882F90E0A90102C043
:1006B000559547958A95E2F7CA018170EC81FD81D5
:1006C000808305C086E0898302C083E089838981B5
:1006D00027960FB6F894DEBF0FBECDBFCF91DF9146
:1006E0000895DF93CF9300D000D000D0CDB7DEB710
:1006F0008A837C836B8319828A818430D8F58A81CE
:10070000282F30E03E832D838D819E81813091059D
:10071000E1F02D813E81223031052CF48D819E81C6
:10072000009761F029C02D813E8122303105A1F072
:100730008D819E8183309105B1F01EC0E9E3F0E028
:100740008081EB81FC81808317C0E6E3F0E080814B
:10075000EB81FC81808310C0E3E3F0E08081EB81DA
:10076000FC81808309C0E0E3F0E08081EB81FC81C3
:10077000808302C083E08983898126960FB6F8942E
:10078000DEBF0FBECDBFCF91DF910895DF93CF9332
:1007900000D0CDB7DEB780E060E041E00E943401D8
:1007A00080E060E041E00E9436001A821982ECE5A8
:1007B000F0E08DE78083E3E5F0E08BE080831A8250
:1007C000198216C0E8E5F0E080818695882F90E0D8
:1007D000817090700097B1F3A8E5B0E0E8E5F0E033
:1007E000808182608C9389819A8101969A83898322
:1007F00089819A8123E0883E920720F3ABE3B0E041
:10080000EBE3F0E0908181E089278C93D8CFF894D6
:02081000FFCF18
:00000001FF
