:100000000C942A000C943C000C943C000C943C0092
:100010000C943C000C943C000C943C000C943C0070
:100020000C943C000C943C000C9472050C943C0025
:100030000C943C000C943C000C943C000C943C0050
:100040000C943C000C943C000C943C000C943C0040
:100050000C943C0011241FBECFE5D8E0DEBFCDBF1D
:1000600010E0A0E6B0E001C01D92AF36B107E1F7A5
:100070000E94BF050C94D1050C940000DF93CF9330
:1000800000D000D000D0CDB7DEB78A836B834C831D
:1000900019828A81843008F0E3C08B81883008F0AF
:1000A000DCC08C81882321F08C81813009F0D2C0A2
:1000B0008A81282F30E03E832D838D819E8181307F
:1000C000910509F443C02D813E81223031052CF485
:1000D0008D819E81009771F0C5C02D813E812230B7
:1000E000310509F45FC08D819E818330910509F44B
:1000F00085C0B8C08C818130A1F4ABE3B0E0EBE304
:10010000F0E08081482F8B81282F30E081E090E063
:10011000022E02C0880F991F0A94E2F7842B8C9359
:10012000A1C0ABE3B0E0EBE3F0E08081482F8B812E
:10013000282F30E081E090E0022E02C0880F991F46
:100140000A94E2F7809584238C938CC08C81813053
:10015000A1F4A8E3B0E0E8E3F0E08081482F8B81D0
:10016000282F30E081E090E0022E02C0880F991F16
:100170000A94E2F7842B8C9375C0A8E3B0E0E8E31F
:10018000F0E08081482F8B81282F30E081E090E0E3
:10019000022E02C0880F991F0A94E2F780958423EB
:1001A0008C9360C08C818130A1F4A5E3B0E0E5E3DD
:1001B000F0E08081482F8B81282F30E081E090E0B3
:1001C000022E02C0880F991F0A94E2F7842B8C93A9
:1001D00049C0A5E3B0E0E5E3F0E08081482F8B81E2
:1001E000282F30E081E090E0022E02C0880F991F96
:1001F0000A94E2F7809584238C9334C08C818130FB
:10020000A1F4A2E3B0E0E2E3F0E08081482F8B812B
:10021000282F30E081E090E0022E02C0880F991F65
:100220000A94E2F7842B8C931DC0A2E3B0E0E2E3D2
:10023000F0E08081482F8B81282F30E081E090E032
:10024000022E02C0880F991F0A94E2F7809584233A
:100250008C9308C089E0898305C086E0898302C049
:1002600083E08983898126960FB6F894DEBF0FBE9E
:10027000CDBFCF91DF910895DF93CF9300D000D011
:1002800000D0CDB7DEB78A836B834C8319828A8115
:10029000843008F0E3C08B81883008F0DCC08C81AA
:1002A000882321F08C81813009F0D2C08A81282FE7
:1002B00030E03E832D838D819E818130910509F44C
:1002C00043C02D813E81223031052CF48D819E81E9
:1002D000009771F0C5C02D813E812230310509F4AF
:1002E0005FC08D819E818330910509F485C0B8C0BF
:1002F0008C818130A1F4AAE3B0E0EAE3F0E08081F0
:10030000482F8B81282F30E081E090E0022E02C040
:10031000880F991F0A94E2F7842B8C93A1C0AAE35B
:10032000B0E0EAE3F0E08081482F8B81282F30E0B5
:1003300081E090E0022E02C0880F991F0A94E2F734
:10034000809584238C938CC08C818130A1F4A7E3A9
:10035000B0E0E7E3F0E08081482F8B81282F30E088
:1003600081E090E0022E02C0880F991F0A94E2F704
:10037000842B8C9375C0A7E3B0E0E7E3F0E08081C5
:10038000482F8B81282F30E081E090E0022E02C0C0
:10039000880F991F0A94E2F7809584238C9360C09C
:1003A0008C818130A1F4A4E3B0E0E4E3F0E080814B
:1003B000482F8B81282F30E081E090E0022E02C090
:1003C000880F991F0A94E2F7842B8C9349C0A4E309
:1003D000B0E0E4E3F0E08081482F8B81282F30E00B
:1003E00081E090E0022E02C0880F991F0A94E2F784
:1003F000809584238C9334C08C818130A1F4A1E357
:10040000B0E0E1E3F0E08081482F8B81282F30E0DD
:1004100081E090E0022E02C0880F991F0A94E2F753
:10042000842B8C931DC0A1E3B0E0E1E3F0E0808178
:10043000482F8B81282F30E081E090E0022E02C00F
:10044000880F991F0A94E2F7809584238C9308C043
:100450008CE0898305C086E0898302C083E08983BC
:10046000898126960FB6F894DEBF0FBECDBFCF911F
:10047000DF910895DF93CF9300D000D00F92CDB7D6
:10048000DEB78A836B8319828A818430E0F58B81A1
:10049000882319F08B818F3F99F58A81282F30E0CE
:1004A0003D832C838C819D8181309105D1F02C81FD
:1004B0003D81223031052CF48C819D81009761F0C3
:1004C00024C02C813D812230310581F08C819D81B9
:1004D0008330910581F019C0EBE3F0E08B818083DC
:1004E00014C0E8E3F0E08B8180830FC0E5E3F0E027
:1004F0008B8180830AC0E2E3F0E08B81808305C0BA
:100500008FE0898302C083E0898389810F900F90F7
:100510000F900F900F90CF91DF910895DF93CF93BD
:1005200000D000D00F92CDB7DEB78A836B831982DB
:100530008A818430E0F58B81882319F08B818F3F8D
:1005400099F58A81282F30E03D832C838C819D8111
:1005500081309105D1F02C813D81223031052CF480
:100560008C819D81009761F024C02C813D812230D7
:10057000310581F08C819D818330910581F019C016
:10058000EAE3F0E08B81808314C0E7E3F0E08B8145
:1005900080830FC0E4E3F0E08B8180830AC0E1E355
:1005A000F0E08B81808305C082E1898302C083E013
:1005B000898389810F900F900F900F900F90CF91AA
:1005C000DF910895DF93CF93CDB7DEB727970FB6AE
:1005D000F894DEBF0FBECDBF8A836B835D834C83EF
:1005E00019828A81843008F078C08B81883008F0C5
:1005F00071C08A81282F30E03F832E834E815F8136
:100600004130510559F18E819F818230910534F43A
:100610002E813F812115310569F061C04E815F81D6
:100620004230510579F18E819F818330910509F423
:100630003DC055C0E9E3F0E08081282F30E08B8198
:10064000882F90E0A90102C0559547958A95E2F759
:10065000CA018170EC81FD81808341C0E6E3F0E056
:100660008081282F30E08B81882F90E0A90102C083
:10067000559547958A95E2F7CA018170EC81FD8115
:1006800080832DC0E3E3F0E08081282F30E08B8170
:10069000882F90E0A90102C0559547958A95E2F709
:1006A000CA018170EC81FD81808319C0E0E3F0E034
:1006B0008081282F30E08B81882F90E0A90102C033
:1006C000559547958A95E2F7CA018170EC81FD81C5
:1006D000808305C086E0898302C083E089838981A5
:1006E00027960FB6F894DEBF0FBECDBFCF91DF9136
:1006F0000895DF93CF9300D000D000D0CDB7DEB700
:100700008A837C836B8319828A818430D8F58A81BD
:10071000282F30E03E832D838D819E81813091058D
:10072000E1F02D813E81223031052CF48D819E81B6
:10073000009761F029C02D813E8122303105A1F062
:100740008D819E8183309105B1F01EC0E9E3F0E018
:100750008081EB81FC81808317C0E6E3F0E080813B
:10076000EB81FC81808310C0E3E3F0E08081EB81CA
:10077000FC81808309C0E0E3F0E08081EB81FC81B3
:10078000808302C083E08983898126960FB6F8941E
:10079000DEBF0FBECDBFCF91DF910895DF93CF9322
:1007A0000F92CDB7DEB789838981882F90E00097BB
:1007B00099F4A3E5B0E0E3E5F0E08081887F8C93D5
:1007C000E2E5F0E01082A3E5B0E0E3E5F0E090813F
:1007D00080916600892B8C930F90CF91DF910895C3
:1007E000DF93CF930F92CDB7DEB789838981882FAE
:1007F00090E0009739F4A3E5B0E0E3E5F0E0808114
:10080000887F8C930F90CF91DF910895DF93CF93E2
:1008100000D00F92CDB7DEB789838981282F30E0D1
:100820003B832A838A819B8181309105C1F02A8193
:100830003B8122303105B9F08A819B810097B1F468
:1008400083E080936600A3E5B0E0E3E5F0E080811B
:1008500088608C93ECE5F0E08DE7808307C083E04F
:100860008093670003C083E0809368000F900F902F
:100870000F90CF91DF910895DF93CF9300D000D0F8
:10088000CDB7DEB789836A838981882F90E000978E
:1008900009F059C08A81809366008A81282F30E050
:1008A0003C832B838B819C81813091050CF44BC060
:1008B0002B813C812630310544F08B819C810B9744
:1008C0008530910508F03FC01DC0A3E5B0E0E3E529
:1008D000F0E0808180648C93A3E5B0E0E3E5F0E094
:1008E000808188608C93A3E5B0E0E3E5F0E080814F
:1008F00080628C93A3E5B0E0E3E5F0E080818F7E39
:100900008C9321C0809166008A5080936600A3E595
:10091000B0E0E3E5F0E0808180648C93A3E5B0E093
:10092000E3E5F0E08081877F8C93A3E5B0E0E3E529
:10093000F0E0808180628C93A3E5B0E0E3E5F0E035
:1009400080818F7E8C930F900F900F900F90CF919E
:10095000DF910895DF93CF9300D0CDB7DEB78983C1
:100960006A838981882F90E0009739F4ECE5F0E004
:100970008A81808380E00E94CE030F900F90CF91F8
:10098000DF910895DF93CF930F92CDB7DEB78983C0
:100990008981882F90E0009719F480E00E94F0038D
:1009A0000F90CF91DF910895DF93CF9300D000D0C7
:1009B000CDB7DEB789837B836A838981882F90E0F6
:1009C000009739F580E00E94CE0311C0E8E5F0E021
:1009D00080818695882F90E0817090708823B1F790
:1009E000A8E5B0E0E8E5F0E0808182608C931C82AD
:1009F0008A819B81009711F081E08C838A819B81A1
:100A000001979B838A838C81882301F780E00E9471
:100A1000F0030F900F900F900F90CF91DF910895FA
:100A2000DF93CF93CDB7DEB727970FB6F894DEBF2D
:100A30000FBECDBF89837B836A835D834C83AFE523
:100A4000B0E0EFE5F0E0808180688C938981282F09
:100A500030E03F832E838E819F818130910501F1AB
:100A60002E813F812230310541F18E819F81009797
:100A700081F5A9E5B0E0E9E5F0E0808182608C9342
:100A80008A819B8190936A00809369008C819D810B
:100A9000909361008093600080E00E94CE0319C0B3
:100AA0008A819B8190936C0080936B008C819D81E7
:100AB00090936300809362000CC08A819B81909325
:100AC0006E0080936D008C819D8190936500809372
:100AD000640027960FB6F894DEBF0FBECDBFCF914E
:100AE000DF9108951F920F920FB60F9211242F934A
:100AF0003F934F935F936F937F938F939F93AF93A6
:100B0000BF93EF93FF93DF93CF93CDB7DEB7809181
:100B10006000909161000097F9F0809169009091D8
:100B20006A00009751F08091690090916A000197E6
:100B300090936A00809369000FC0E0916000F0918B
:100B400061000995A9E5B0E0E9E5F0E080818D7FDD
:100B50008C9380E00E94F003CF91DF91FF91EF91A1
:100B6000BF91AF919F918F917F916F915F914F91C5
:100B70003F912F910F900FBE0F901F901895DF930C
:100B8000CF93CDB7DEB781E063E041E00E943C0146
:100B900080E06BE00E943C0480E064E10E94AA04D3
:060BA000FFCFF894FFCF27
:00000001FF
